:100000000C9434000C9451000C9451000C94510049
:100010000C9451000C9451000C9451000C9451001C
:100020000C9451000C9451000C9451000C9451000C
:100030000C9451000C9451000C9451000C945100FC
:100040000C9451000C9451000C9451000C945100EC
:100050000C9451000C9451000C9451000C945100DC
:100060000C9451000C94510011241FBECFEFD8E026
:10007000DEBFCDBF11E0A0E0B1E0EAEAF8E002C0E7
:1000800005900D92A435B107D9F721E0A4E5B1E0C0
:1000900001C01D92A137B207E1F70E9437010C940D
:1000A00053040C940000CF93C82F8A3019F48DE0CC
:1000B0000E945300E0ECF0E0808185FFFDCFC0930B
:1000C000C60080E090E0CF910895CF93BC01E0ECB2
:1000D000F0E090819923ECF7C091C6008C2F0E942C
:1000E00053008C2F90E0CF9108951092B90088E4CE
:1000F0008093B8008EE091E00E945B01089594EA3D
:100100009093BC00ECEBF0E090819923ECF7909198
:10011000B900987F983011F09031A1F48093BB0022
:1001200084E88093BC00ECEBF0E080818823ECF75E
:100130009091B900987F983139F081E0903429F49A
:1001400080E0089581E0089580E0089584E9809337
:10015000BC00ECEBF0E0808184FDFDCF089580933E
:10016000BB0084E88093BC00ECEBF0E08081882346
:10017000ECF79091B900987F81E0983209F480E023
:10018000089584E88093BC00ECEBF0E08081882344
:10019000ECF78091BB0008951092C50083E3809333
:1001A000C40088E18093C10086E08093C2008FE1A3
:1001B00091E00E945B0108950F931F93CF9380936A
:1001C00066010E9475008EEE0E947F00C82F882372
:1001D00031F082E391E00E945B01C1E043C08AEA12
:1001E0000E94AF000E94A6008FEE0E947F000E9436
:1001F000C10090E090935901809358010E94A6009D
:100200008EEE0E947F008CEA0E94AF000E94A60042
:100210008FEE0E947F000E94C10090E090936101E8
:10022000809360010E94A600809159018F93809174
:1002300058018F930EE411E01F930F930E94450124
:10024000809161018F93809160018F931F930F9331
:100250000E9445018DB79EB708960FB6F8949EBFD1
:100260000FBE8DBF8C2FCF911F910F910895EBE69C
:10027000F1E080E091E091838083938382830E9408
:10028000CC0083E00E94DC00FFCFA0E0B0E0EBE414
:10029000F1E00C942C04AE014B5F5F4FFA016191C9
:1002A0007191AF0180916D0190916E010E948B015F
:1002B000E2E00C9448040F931F93CF93DF93E091F7
:1002C0006D01F0916E01238121FF1BC08C01D0E0F4
:1002D000C0E0F80181918F0160916D0170916E0114
:1002E000DB011896ED91FC911997882331F009955F
:1002F000892B79F3DFEFCFEFECCF8AE00995892BDB
:1003000019F08FEF9FEF02C08D2F9C2FDF91CF91BF
:100310001F910F910895ABE0B0E0E1E9F1E00C949A
:100320001C046C017B018A01FC0117821682838107
:1003300081FFCCC1CE0101963C01F6019381F7010A
:1003400093FD859193FF81917F01882309F4BAC1C0
:10035000853239F493FD859193FF81917F01853238
:1003600029F4B60190E00E948203E7CF912C212C62
:10037000312CFFE1F315D8F08B3279F038F480326C
:1003800079F08332A1F4232D20611DC08D3261F0FC
:10039000803369F4232D216016C0832D8260382EAE
:1003A000E32DE4603E2E2AC0F32DF8601DC037FC1B
:1003B0002DC020ED280F2A3040F08E32B9F436FCE3
:1003C00081C1232D2064322E19C036FE06C08AE07A
:1003D000989E200D1124922E11C0EAE02E9E200D31
:1003E0001124222EF32DF0623F2E08C08C3621F40A
:1003F000832D8068382E02C0883641F4F70193FDC2
:10040000859193FF81917F018111B3CF982F9F7DBB
:100410009554933028F40C5F1F4F9FE399830DC0D0
:10042000833631F0833771F0833509F059C021C02C
:10043000F801808189830E5F1F4F88248394912C5B
:10044000530113C02801F2E04F0E511CF801A080A7
:10045000B18036FE03C0692D70E002C06FEF7FEF00
:10046000C5010E9477034C018201F32DFF773F2ED7
:1004700016C0280122E0420E511CF801A080B18074
:1004800036FE03C0692D70E002C06FEF7FEFC5013B
:100490000E946C034C01F32DF0683F2E820133FC67
:1004A0001BC0822D90E088169906B0F4B60180E258
:1004B00090E00E9482032A94F4CFF50137FC8591E5
:1004C00037FE81915F01B60190E00E948203211006
:1004D0002A9421E0821A91088114910471F7E8C0EE
:1004E000843611F0893641F5F80137FE07C0608186
:1004F0007181828193810C5F1F4F08C0608171817F
:10050000072E000C880B990B0E5F1F4FF32DFF7603
:100510003F2E97FF09C090958095709561957F4F0C
:100520008F4F9F4FF0683F2E2AE030E0A3010E94DA
:10053000BE03882E861845C0853731F4232D2F7EC3
:10054000B22E2AE030E025C0932D997FB92E8F3648
:10055000C1F018F4883579F0B5C0803719F08837C4
:1005600021F0B0C0E92FE061BE2EB4FE0DC0FB2D1E
:10057000F460BF2E09C034FE0AC0292F2660B22EB7
:1005800006C028E030E005C020E130E002C020E1F4
:1005900032E0F801B7FE07C06081718182819381EA
:1005A0000C5F1F4F06C06081718180E090E00E5F9C
:1005B0001F4FA3010E94BE03882E8618FB2DFF77D4
:1005C0003F2E36FE0DC0232D2E7FA22E891458F407
:1005D00034FE0BC032FC09C0832D8E7EA82E05C0D0
:1005E000B82CA32C03C0B82C01C0B92CA4FE0FC09A
:1005F000FE01E80DF11D8081803321F49A2D997E52
:10060000A92E09C0A2FE06C0B394B39404C08A2DDB
:10061000867809F0B394A3FC11C0A0FE06C0B21402
:1006200088F4280C922C9B180EC0B21460F4B6010A
:1006300080E290E00E948203B394F7CFB21418F4E2
:100640002B1802C0982C212CA4FE10C0B60180E308
:1006500090E00E948203A2FE17C0A1FC03C088E7BD
:1006600090E002C088E590E0B6010CC08A2D867843
:1006700059F0A1FE02C08BE201C080E2A7FC8DE22E
:10068000B60190E00E948203891438F4B60180E339
:1006900090E00E9482039A94F7CF8A94F301E80DC8
:1006A000F11D8081B60190E00E9482038110F5CF98
:1006B000222009F442CEB60180E290E00E9482033B
:1006C0002A94F6CFF6018681978102C08FEF9FEFC3
:1006D0002B96E2E10C943804FC01059061507040C7
:1006E0000110D8F7809590958E0F9F1F0895FC01FB
:1006F0006150704001900110D8F7809590958E0F51
:100700009F1F08950F931F93CF93DF93FB012381C6
:1007100021FD03C08FEF9FEF2CC022FF16C0468142
:100720005781248135814217530744F4A081B18158
:100730009D012F5F3F4F318320838C93268137812A
:100740002F5F3F4F3783268314C08B01EC01FB01E1
:100750000084F185E02D0995892BE1F6D8011696E4
:100760008D919C911797019617969C938E9316974F
:10077000CE01DF91CF911F910F910895FA01AA2721
:10078000283051F1203181F1E8946F936E7F6E5FD4
:100790007F4F8F4F9F4FAF4FB1E03ED0B4E03CD082
:1007A000670F781F891F9A1FA11D680F791F8A1F65
:1007B000911DA11D6A0F711D811D911DA11D20D0CC
:1007C00009F468943F912AE0269F11243019305D86
:1007D0003193DEF6CF010895462F4770405D419377
:1007E000B3E00FD0C9F7F6CF462F4F70405D4A33C4
:1007F00018F0495D31FD4052419302D0A9F7EACF8C
:10080000B4E0A6959795879577956795BA95C9F7BA
:1008100000976105710508959B01AC010A2E0694AD
:100820005795479537952795BA95C9F7620F731F66
:10083000841F951FA01D08952F923F924F925F92A3
:100840006F927F928F929F92AF92BF92CF92DF92E0
:10085000EF92FF920F931F93CF93DF93CDB7DEB745
:10086000CA1BDB0B0FB6F894DEBF0FBECDBF0994D9
:100870002A88398848885F846E847D848C849B8430
:10088000AA84B984C884DF80EE80FD800C811B813E
:10089000AA81B981CE0FD11D0FB6F894DEBF0FBE6D
:0A08A000CDBFED010895F894FFCFDD
:1008AA0000000003000000005300650000000A4930
:1008BA00324320496E697469616C697A6564000A19
:1008CA00555341525420494E495449414C495A457D
:1008DA0044000A41646472657373207265676973C0
:1008EA00746572696E67206661696C6564000A25C1
:0408FA00640A00008C
:00000001FF
