:1000000094C00000AEC00000ACC00000AAC0000058
:10001000A8C00000A6C00000A4C00000A2C000004C
:10002000A0C000009EC000009CC000009AC000005C
:1000300098C0000096C0000094C0000092C000006C
:1000400090C000008EC000008CC000008AC000007C
:1000500088C0000086C0000084C0000082C000008C
:1000600080C000007EC00000BE01C101C401C70104
:10007000CA01CD01D001D301D601D901DC01DF01D4
:10008000E201E501E801EB01F701FA01FD010002DF
:100090000302060209020C020F02120215021802E4
:1000A0001B021E022102240207634236B79BD8A717
:1000B0001A39685618AEBAAB558C1D3CB7CC57638D
:1000C000BD6DEDFD753EF6177231BF000000803F3B
:1000D00008000000BE922449123EABAAAA2ABECD57
:1000E000CCCC4C3E00000080BEABAAAAAA3E0000C9
:1000F0000000BF000000803F0000000000084178C1
:10010000D3BB4387D1133D190E3CC3BD4282AD2BF7
:100110003E68EC8276BED98FE1A93E4C80EFFFBEEF
:1001200001C4FF7F3F000000000011241FBECFEF7D
:10013000D8E0DEBFCDBF12E0A0E0B1E0E8EDFCE129
:1001400002C005900D92AE35B107D9F722E0AEE5B9
:10015000B2E001C01D92AB37B207E1F71AD60C949A
:100160006A0E4ECF1092B9008CE08093B8008EE0FA
:1001700091E00C94710B089594EA9093BC00ECEB21
:10018000F0E090819923ECF79091B900987F983036
:1001900011F09031A1F48093BB0084E88093BC00FF
:1001A000ECEBF0E080818823ECF79091B900987F28
:1001B000983139F081E0903429F480E0089581E0AD
:1001C000089580E0089584E98093BC00ECEBF0E0B2
:1001D000808184FDFDCF08958093BB0084E88093E7
:1001E000BC00ECEBF0E080818823ECF79091B90043
:1001F000987F81E0983209F480E0089584EC809340
:10020000BC00ECEBF0E080818823ECF78091BB0030
:10021000089584E88093BC00ECEBF0E080818823B3
:10022000ECF78091BB0008959BB19F709BB99BB187
:10023000282F207F922B9BB92898299AEFE3FCE97D
:100240003197F1F700C000002998EFE3FCE93197FE
:10025000F1F700C000009BB19F709BB92BB1F0E19A
:100260008F02C0011124822B8BB92898299A8FE321
:100270009CE90197F1F700C000002998EFE3FCE941
:100280003197F1F700C00000089583E084B980EF52
:100290008AB988E2C9DF8CE0C7DF86E0C5DF81E08C
:1002A000C3DF80E8C1CF08959BB19F709BB99BB11C
:1002B000282F207F922B9BB9289A299AEFE3FCE9FB
:1002C0003197F1F700C000002998EFE3F6E031978D
:1002D000F1F700C000009BB19F709BB92BB1F0E11A
:1002E0008F02C0011124822B8BB9289A299A8FE39F
:1002F0009CE90197F1F700C000002998EFE3F6E0D0
:100300003197F1F700C000000895CF93DF93EC011F
:10031000888118162CF42196C7DF89911816E4F30A
:10032000DF91CF910895CF93DF93CDB7DEB72897B4
:100330000FB6F894DEBF0FBECDBF4AE0BE016F5FBF
:100340007F4F0E943B0BCE010196DFDF28960FB650
:10035000F894DEBF0FBECDBFDF91CF910895009717
:1003600021F0019709F43AC008956031710508F051
:100370006DC0FB01EC5CFF4F0C94160B80E854CF72
:10038000089581E851CF089582E84ECF089583E81B
:100390004BCF089584E848CF089585E845CF089568
:1003A00086E842CF089587E83FCF089588E83CCF9C
:1003B000089589E839CF08958AE836CF08958BE803
:1003C00033CF08958CE830CF08958DE82DCF089570
:1003D0008EE82ACF08958FE827CF08956031710500
:1003E00008F034C0FB01EC5BFF4F0C94160B80EC63
:1003F0001BCF089581EC18CF089582EC15CF089596
:1004000083EC12CF089584EC0FCF089585EC0CCFC8
:10041000089586EC09CF089587EC06CF089588ECFF
:1004200003CF089589EC00CF08958AECFDCE08959E
:100430008BECFACE08958CECF7CE08958DECF4CECB
:1004400008958EECF1CE08958FECEECE089581E004
:10045000EBCE08958FE0E8CE08958CE0E5CE0895C8
:10046000CF93C82F8A3011F48DE0FADFE0ECF0E092
:10047000808185FFFDCFC093C60080E090E0CF91E2
:100480000895CF93BC01E0ECF0E090819923ECF764
:10049000C091C6008C2FE4DF8C2F90E0CF9108959F
:1004A0001092C50087E68093C40088E18093C10064
:1004B00086E08093C2008FE191E00C94710B089567
:1004C000CF93809370024EDE8EEE56DEC82F8823C7
:1004D00031F082E391E00E94710BC1E084C18AEAAD
:1004E0007BDE71DE8FEE48DE89DE10926202809341
:1004F00063028FDE2091620230916302282B3093D9
:100500006302209362025FDE8EEE36DE8CEA64DEEA
:100510005ADE8FEE31DE72DE10926A0280936B0239
:1005200078DE20916A0230916B02282B30936B02A7
:1005300020936A0248DE8EEE1FDE8EEA4DDE43DE39
:100540008FEE1ADE5BDE109273028093740261DE1E
:100550002091730230917402282B309374022093FF
:10056000730231DE8EEE08DE80EB36DE2CDE8FEE9F
:1005700003DE44DE10926E0280936F024ADE209109
:100580006E0230916F02282B30936F0220936E021F
:100590001ADE8EEEF1DD82EB1FDE15DE8FEEECDD76
:1005A0002DDE109268028093690233DE209168028A
:1005B00030916902282B309369022093680203DE90
:1005C0008EEEDADD84EB08DEFEDD8FEED5DD16DEA5
:1005D00010926602809367021CDE209166023091C1
:1005E0006702282B3093670220936602ECDD8EEEC3
:1005F000C3DD86EBF1DDE7DD8FEEBEDDFFDD1092C2
:1006000064028093650205DE2091640230916502E8
:10061000282B3093650220936402D5DD8EEEACDD8D
:1006200088EBDADDD0DD8FEEA7DDE8DD10925E022B
:1006300080935F02EEDD20915E0230915F02282BF5
:1006400030935F0220935E02BEDD8EEE95DD8AEB75
:10065000C3DDB9DD8FEE90DDD1DD109260028093B5
:100660006102D7DD2091600230916102282B309326
:10067000610220936002A7DD8EEE7EDD8CEBACDDA7
:10068000A2DD8FEE79DDBADD1092710280937202E5
:10069000C0DD2091710230917202282B30937202DA
:1006A0002093710290DD8EEE67DD8EEB95DD8BDDA4
:1006B0008FEE62DDA3DD10926C0280936D02A9DDE6
:1006C00020916C0230916D02282B30936D022093A3
:1006D0006C0279DD809163028F93809162028F9327
:1006E0008EE491E09F938F93E9D780916B028F9373
:1006F00080916A028F9389E591E09F938F93DED773
:10070000809174028F93809173028F9384E691E0BD
:100710009F938F93D3D780916F028F9380916E02B6
:100720008F938FE691E09F938F93C8D78091690252
:100730008F93809168028F938AE791E09F938F93C4
:10074000BDD7809167028F93809166028F9385E871
:1007500091E09F938F93B2D7809165028F938091A0
:1007600064028F9380E991E09F938F93A7D7809144
:100770005F028F9380915E028F938AE991E09F934D
:100780008F939CD78DB79EB780960FB6F8949EBF77
:100790000FBE8DBF809161028F93809160028F9315
:1007A00084EA91E09F938F9389D7809172028F930F
:1007B000809171028F938EEA91E09F938F937ED701
:1007C00080916D028F9380916C028F9388EB91E002
:1007D0009F938F9373D78DB79EB70C960FB6F894EF
:1007E0009EBF0FBE8DBF8C2FCF910895CF93DF9307
:1007F0008EEEC2DC84EFF0DC8EE2EEDCE4DC8FE433
:1008000096E40197F1F700C000008EEEB5DC86EFAC
:10081000E3DCD9DC8FEEB0DCF1DCC82FD0E0DC2FDC
:10082000CC27F7DC9E01282BC901DF91CF910895D9
:100830008F929F92AF92BF92CF92DF92EF92FF92F0
:100840000F931F93D3DF7C01FF928F9382EC91E093
:100850009F938F9333D7A70160E070E08091660289
:10086000909167029A01AB01281B390B410951098C
:10087000A0916802B0916902DFD64B015C01072E9E
:100880007FE0B594A794979487947A95D1F7702DCB
:100890006091710270917202CB01770FAA0BBB0BB2
:1008A000BC01CD01052E5BE0660F771F881F991FE5
:1008B0005A95D1F7502D20916C0230916D0289012B
:1008C000330F220B330BA9019801280D391D4A1D46
:1008D0005B1D90D675016401C20ED31EE41EF51E89
:1008E000FF92EF92DF92CF925F934F933F932F93BC
:1008F000BF92AF929F928F928BEC91E09F938F93D8
:10090000DDD628E0C20ED11CE11CF11C689413F85E
:10091000F594E794D794C7941694D1F7FF92EF9289
:10092000DF92CF9288EE91E09F938F93C7D6C70155
:10093000B601DBD320E030E040E251E43BD32DB7F9
:100940003EB7285E3F4F0FB6F8943EBF0FBE2DBF97
:100950001F910F91FF90EF90DF90CF90BF90AF90DD
:100960009F908F900895CF92DF92EF92FF92CF9356
:100970008EEE02DC84EF30DC809170028295880F6D
:10098000880F807C8C5C28DC1EDC809170028130BA
:1009900069F028F0823089F08330B1F01EC08FE416
:1009A00096E40197F1F700C0000017C08FE295E7C9
:1009B0000197F1F700C0000010C08FEE92ED019793
:1009C000F1F700C0000009C09FEB2EE381E09150D9
:1009D00020408040E1F700C000008EEECDDB86EFC6
:1009E000FBDBF1DB8FEEC8DB09DCC82ED12CE12C60
:1009F000F12C04DCC82F0DDC7601DD24CC24C82AC0
:100A00006C2F70E0762F6627CB01770FAA0BBB0BFC
:100A10008C299D29AE29BF294091700228E030E041
:100A2000241B3109BC01CD0104C0969587957795AB
:100A300067952A95D2F7CF91FF90EF90DF90CF90F6
:100A400008954F925F926F927F928F929F92AF9292
:100A5000BF92CF92DF92EF92FF920F931F93CF93AB
:100A6000DF93CDB7DEB728970FB6F894DEBF0FBE81
:100A7000CDBFBCDE5C0177DF69837A838B839C8387
:100A8000A50160E070E080916602909167029A0192
:100A9000AB01281B390B41095109A0916802B091A3
:100AA0006902CAD52B013C01032E3FE0759467947F
:100AB000579447943A95D1F7302D60917102709117
:100AC0007202CB01770FAA0BBB0BBC01CD01052E27
:100AD0005BE0660F771F881F991F5A95D1F7502D3D
:100AE00020916C0230916D028901330F220B330B80
:100AF000A9019801240D351D461D571D7BD5420EB9
:100B0000531E641E751E20EA421A2FE0520A610825
:100B10007108A3019201C301B2013BD56B017C01B5
:100B20000B2EBCE0F594E794D794C794BA95D1F70F
:100B3000B02DE0917002A0917302B091740286D53D
:100B40004B015C01072E7DE0B594A79497948794A0
:100B50007A95D1F7702DA0916402B0916502A7013A
:100B6000960174D5BB2797FDB095AB2F880D991DC5
:100B7000AA1DBB1D0296A11DB11DB595A795979500
:100B80008795B595A795979587959C01AD013058A8
:100B90004F4F5F4FA0916E02B0916F024DD59B01F8
:100BA000AC01012E1FE056954795379527951A956C
:100BB000D1F7102D2D833E834F835887A0915E027D
:100BC000B0915F02A701960141D54B015C01072E50
:100BD0007BE0B594A794979487947A95D1F7702D7C
:100BE000A0916A02B0916B02A30192012FD5DC01A2
:100BF000CB01072E7BE0B595A795979587957A95BC
:100C0000D1F7702D880D991DAA1DBB1D4091620260
:100C100050916302052E000C660B770B440F551F95
:100C2000661F771F440F551F661F771F840F951F80
:100C3000A61FB71F0E2E04C0880F991FAA1FBB1F27
:100C40000A94D2F70296A11DB11DAC01BD01BB23D0
:100C500024F44D5F5F4F6F4F7F4F759567955795A4
:100C60004795759567955795479589819A81AB8189
:100C7000BC81841B950BA60BB70B9C01AD0180E5D5
:100C800093ECA0E0B0E0BC01CD0104C0969587953F
:100C900077956795EA95D2F77CD4992364F0660F2F
:100CA000771F881F991F2D813E814F81588580D4E1
:100CB00049015A010BC02D813E814F81588578D45E
:100CC00049015A01880C991CAA1CBB1C9927B7FC26
:100CD0009A958B2D7A2D692D9B01AC015AD49B01DD
:100CE000AC01AEEDBBE0A8D46B017C01A3E4B3EE94
:100CF000A5019401ADD4BB2797FDB095AB2F67013B
:100D0000FF24D7FCF094EF2C8C0D9D1DAE1DBF1D54
:100D10008153914FAF4FBF4F689413F8B595A79586
:100D2000979587951694D1F7BC01CD01680D791D73
:100D30008A1D9B1D28960FB6F894DEBF0FBECDBF4F
:100D4000DF91CF911F910F91FF90EF90DF90CF90A7
:100D5000BF90AF909F908F907F906F905F904F90DB
:100D600008956FDEC2D120E836EE45EC57E422D17B
:100D700021E03EED42E45EE3A7D29B01AC0160E0DE
:100D800070E080E89FE3B1D020E03AE24DE257E422
:100D900038C283E084B980EF8AB9E5E7F2E080E009
:100DA00091E091838083938382837ADB83E088DB85
:100DB0002FEF83EC99E0215080409040E1F700C094
:100DC000000063DA0F2EF8EFAF2EF1E0BF2EF02D0A
:100DD0000CE012E0CBE1D2E00F2EFFE28F2EF2E02A
:100DE0009F2EF02DC0DD9F938F937F936F93BF92C3
:100DF000AF9264D426DE9F938F937F936F931F935C
:100E00000F935CD4AEDF2B013C013CD16B017C0124
:100E1000072E000C880B990B68D19B01AC01C30114
:100E2000B20163D020E030E040E251E4EAD12AD1BF
:100E30007F936F93DF92CF92DF93CF933FD4F8DC11
:100E40002B013C011FD16B017C01072E000C880B8C
:100E5000990B4BD19B01AC01C301B20146D020E0FC
:100E600030E040E251E4CDD10DD1662E772E7F9354
:100E70006F93DF92CF929F928F9220D4E8DAEADAD2
:100E80008BE492E042DA60E070E081E090E067DAC3
:100E9000C60149DA62E070E081E090E060DA88E55E
:100EA00092E033DA63E070E081E090E058DA862D7A
:100EB000972D39DA64E070E081E090E050DA8AE55D
:100EC00092E023DA9FEF2BE782E9915020408040A7
:100ED000E1F700C00000C1DA8DB79EB748960FB6A3
:100EE000F8949EBF0FBE8DBF7DCF5058BB27AA2759
:100EF0000ED04DC13ED130F043D120F031F49F3FB0
:100F000011F41EF433C10EF4E095E7FB29C1E92F7B
:100F10004FD180F3BA17620773078407950718F05B
:100F200071F49EF567C10EF4E0950B2EBA2FA02D3B
:100F30000B01B90190010C01CA01A0011124FF2786
:100F4000591B99F0593F50F4503E68F11A16F04081
:100F5000A22F232F342F4427585FF3CF4695379580
:100F60002795A795F0405395C9F77EF41F16BA0B45
:100F7000620B730B840BBAF09150A1F0FF0FBB1FF3
:100F8000661F771F881FC2F70EC0BA0F621F731F3C
:100F9000841F48F4879577956795B795F7959E3F99
:100FA00008F0B3CF9395880F08F09927EE0F979527
:100FB000879508950CD0EBC0E3D040F0DAD030F044
:100FC00021F45F3F19F0CCC0511115C1CFC0F0D052
:100FD00098F39923C9F35523B1F3951B550BBB2700
:100FE000AA2762177307840738F09F5F5F4F220FAD
:100FF000331F441FAA1FA9F333D00E2E3AF0E0E8A6
:1010000030D091505040E695001CCAF729D0FE2FF1
:1010100027D0660F771F881FBB1F26173707480783
:10102000AB07B0E809F0BB0B802DBF01FF27935839
:101030005F4F2AF09E3F510568F092C0DCC05F3FD1
:10104000ECF3983EDCF3869577956795B795F79521
:101050009F5FC9F7880F911D9695879597F9089519
:10106000E1E0660F771F881FBB1F621773078407B5
:10107000BA0720F0621B730B840BBA0BEE1F88F7C4
:10108000E095089504D06894B111B5C0089598D042
:1010900088F09F5790F0B92F9927B751A0F0D1F061
:1010A000660F771F881F991F1AF0BA95C9F712C0EB
:1010B000B13081F09FD0B1E008959CC0672F782FA8
:1010C0008827B85F39F0B93FCCF386957795679557
:1010D000B395D9F73EF490958095709561957F4FC3
:1010E0008F4F9F4F0895E89409C097FB3EF4909569
:1010F0008095709561957F4F8F4F9F4F9923A9F0F1
:10110000F92F96E9BB279395F6958795779567957F
:10111000B795F111F8CFFAF4BB0F11F460FF1BC0C3
:101120006F5F7F4F8F4F9F4F16C0882311F096E956
:1011300011C0772321F09EE8872F762F05C0662304
:1011400071F096E8862F70E060E02AF09A95660FBD
:10115000771F881FDAF7880F9695879597F9089576
:1011600097F99F6780E870E060E008959FEF80EC5A
:10117000089500240A9416161706180609060895FD
:1011800000240A9412161306140605060895092E63
:101190000394000C11F4882352F0BB0F40F4BF2BD2
:1011A00011F460FF04C06F5F7F4F8F4F9F4F089512
:1011B00057FD9058440F551F59F05F3F71F0479508
:1011C000880F97FB991F61F09F3F79F087950895ED
:1011D000121613061406551FF2CF4695F1DF08C00C
:1011E000161617061806991FF1CF86957105610529
:1011F00008940895E894BB2766277727CB0197F9D1
:1012000008950BD0C4CFB5DF28F0BADF18F09523CE
:1012100009F0A6CFABCF1124EECFCADFA0F3959F84
:10122000D1F3950F50E0551F629FF001729FBB27CD
:10123000F00DB11D639FAA27F00DB11DAA1F649F79
:101240006627B00DA11D661F829F2227B00DA11D2C
:10125000621F739FB00DA11D621F839FA00D611DB2
:10126000221F749F3327A00D611D231F849F600DD3
:10127000211D822F762F6A2F11249F5750408AF00C
:10128000E1F088234AF0EE0FFF1FBB1F661F771F98
:10129000881F91505040A9F79E3F510570F060CFD4
:1012A000AACF5F3FECF3983EDCF386957795679580
:1012B000B795F795E7959F5FC1F7FE2B880F911DB6
:1012C0009695879597F90895FA01EE0FFF1F3096CE
:1012D0002105310599F16115710561F48038BFE38D
:1012E0009B0749F168949038810561F08038BFEF21
:1012F0009B0741F0992342F5FF3FE10531052105A8
:1013000011F1E8940894E795D901AA2329F4AB2FA9
:10131000BE2FF85FD0F310C0FF5F70F4A695E0F722
:10132000F73950F019F0FF3A38F49F779F930CD0BB
:101330000F9007FC905808953EF018CF60E070E0E1
:1013400080E89FE308954FE79F775F934F933F9324
:101350002F939ED02F913F914F915F9152DF05C007
:1013600019F40EF0FDCE46CF01CF2ADFC8F3963830
:10137000C0F707F80F92E8942BE33AEA48EB5FE7EF
:101380004EDF0F920F920F924DB75EB70F92C0D003
:10139000E8EAF0E016D04F915F91EF91FF91E5956B
:1013A000EE1FFF1F49F0FE57E0684427EE0F441F71
:1013B000FA95E1F74195550B32D00F9007FE26C004
:1013C0000895DF93CF931F930F93FF92EF92DF92D5
:1013D0007B018C01689405C0DA2EEF011EDFFE014F
:1013E000E894A5912591359145915591AEF3EF0182
:1013F0008EDDFE019701A801DA9479F7DF90EF9076
:10140000FF900F911F91CF91DF9108959B01AC0147
:1014100060E070E080E89FE3CDCDA2CEACC0D0DE2E
:10142000E8F39923D9F3940F511DBBF39150504029
:1014300094F059F0882332F0660F771F881F91507F
:101440005040C1F79E3F510544F7880F911D969576
:10145000879597F908955F3FACF0983E9CF0BB27C5
:10146000869577956795B79508F4B1609395C1F720
:10147000BB0F58F711F460FFE8CF6F5F7F4F8F4FBE
:101480009F4FE3CFB8CE0EF076C070CE689468CE92
:1014900097DEC8F39923D1F3C6F3DF93CF931F935D
:1014A0000F93FF92C92FDD2788232AF02197660F1B
:1014B000771F881FDAF720E030E040E85FEB9FE31A
:1014C000883920F0803E30F021968F770FDDE0EDF7
:1014D000F0E003C00BDDEDEFF0E073DF8B01BE0148
:1014E000EC01FB2E6F5771097595771F880B990BCF
:1014F000FCDD28E132E741E35FE38FDEAF2D9801A9
:10150000AE01FF900F911F91CF91DF9100DD3FCE93
:10151000FA01DC01AA0FBB1F9B01AC01BF5728F4E5
:1015200022273327442750781FC0B75188F4AB2FA8
:101530000024469537952795011CA395D2F30020EA
:1015400069F0220F331F441FB395DAF30DD0CDCCD1
:1015500061307105A0E88A07B94630F49B01AC01FF
:101560006627772788279078309621F0208331836B
:101570004283538308959F3F31F0915020F4879523
:1015800077956795B795880F911D9695879597F9EB
:101590000895DB018F939F934FD0BF91AF91A29F8E
:1015A000800D911DA39F900DB29F900D1124089561
:1015B000A1E21A2EAA1BBB1BFD010DC0AA1FBB1F57
:1015C000EE1FFF1FA217B307E407F50720F0A21BC9
:1015D000B30BE40BF50B661F771F881F991F1A9436
:1015E00069F760957095809590959B01AC01BD0160
:1015F000CF010895052E97FB16F400940FD057FDE8
:1016000005D0D6DF07FC02D046F408C050954095BF
:10161000309521953F4F4F4F5F4F0895909580959E
:10162000709561957F4F8F4F9F4F0895EE0FFF1F6D
:101630000590F491E02D09940FD0A59F900DB49FD3
:10164000900DA49F800D911D11240895B7FFF4CF34
:10165000F3DF821B930B0895A29FB001B39FC001DB
:10166000A39F700D811D1124911DB29F700D811DCE
:101670001124911D0895BB274A3031F4992322F497
:10168000BDE2909581959F4F01C0BB27FB01552777
:10169000AA27880F991FAA1FA41710F0A41B8395CF
:1016A0005051B9F7A05DAA3308F0A95DA193009746
:1016B00079F7B111B1931192CB012BC2A0E0B0E048
:1016C000E3E6FBE0E0C2AE014B5F5F4FFA016191E0
:1016D0007191AF01809177029091780232D0E2E06F
:1016E000EEC20F931F93CF93DF93E0917702F091B7
:1016F0007802238121FF1BC08C01D0E0C0E0F801FB
:1017000081918F016091770270917802DB011896C8
:10171000ED91FC911997882331F00995892B79F384
:10172000DFEFCFEFECCF8AE00995892B19F08FEF2F
:101730009FEF02C08D2F9C2FDF91CF911F910F91B2
:101740000895ABE0B0E0E6EAFBE08DC26C017B01FE
:101750008A01FC0117821682838181FFBFC1CE01FD
:1017600001963C01F6019381F70193FD859193FF6A
:1017700081917F01882309F4ADC1853239F493FD4D
:10178000859193FF81917F01853221F4B60190E02C
:10179000D0D1E8CF912C212C312CFFE1F315D8F0DA
:1017A0008B3279F038F4803279F08332A1F4232D32
:1017B00020611DC08D3261F0803369F4232D2160DA
:1017C00016C0832D8260382EE32DE4603E2E2AC0A1
:1017D000F32DF8601DC037FC2DC020ED280F2A30F6
:1017E00040F08E32B9F436FC75C1232D2064322EC0
:1017F00019C036FE06C08AE0989E200D1124922E54
:1018000011C0EAE02E9E200D1124222EF32DF0624D
:101810003F2E08C08C3621F4832D8068382E02C0FC
:10182000883641F4F70193FD859193FF81917F0103
:101830008111B3CF982F9F7D9554933028F40C5F7E
:101840001F4F9FE399830DC0833631F0833771F0CA
:10185000833509F055C020C0F801808189830E5F6F
:101860001F4F88248394912C530112C02801F2E069
:101870004F0E511CF801A080B18036FE03C0692DC7
:1018800070E002C06FEF7FEFC50138D14C018201DB
:10189000F32DFF773F2E15C0280122E0420E511C88
:1018A000F801A080B18036FE03C0692D70E002C04F
:1018B0006FEF7FEFC50117D14C01F32DF0683F2E7C
:1018C000820133FC19C0822D90E088169906A0F49D
:1018D000B60180E290E02DD12A94F5CFF50137FCD6
:1018E000859137FE81915F01B60190E022D12110F0
:1018F0002A9421E0821A91088114910479F7E1C0B9
:10190000843611F0893639F5F80137FE07C0608159
:101910007181828193810C5F1F4F08C0608171814A
:10192000072E000C880B990B0E5F1F4FF32DFF76CF
:101930003F2E97FF09C090958095709561957F4FD8
:101940008F4F9F4FF0683F2E2AE030E0A3012DD14A
:10195000882E861844C0853731F4232D2F7EB22E71
:101960002AE030E025C0932D997FB92E8F36C1F043
:1019700018F4883579F0AEC0803719F0883721F037
:10198000A9C0E92FE061BE2EB4FE0DC0FB2DF460AE
:10199000BF2E09C034FE0AC0292F2660B22E06C011
:1019A00028E030E005C020E130E002C020E132E074
:1019B000F801B7FE07C060817181828193810C5F5D
:1019C0001F4F06C06081718180E090E00E5F1F4F65
:1019D000A301EBD0882E8618FB2DFF773F2E36FE15
:1019E0000DC0232D2E7FA22E891458F434FE0BC077
:1019F00032FC09C0832D8E7EA82E05C0B82CA32CE6
:101A000003C0B82C01C0B92CA4FE0FC0FE01E80D24
:101A1000F11D8081803321F49A2D997EA92E09C071
:101A2000A2FE06C0B394B39404C08A2D867809F050
:101A3000B394A3FC10C0A0FE06C0B21480F4280C1E
:101A4000922C9B180DC0B21458F4B60180E290E0BD
:101A500070D0B394F8CFB21418F42B1802C0982C9D
:101A6000212CA4FE0FC0B60180E390E062D0A2FE5C
:101A700016C0A1FC03C088E790E002C088E590E0B2
:101A8000B6010CC08A2D867851F0A1FE02C08BE20F
:101A900001C080E2A7FC8DE2B60190E04AD0891433
:101AA00030F4B60180E390E044D09A94F8CF8A9461
:101AB000F301E80DF11D8081B60190E03AD081106C
:101AC000F6CF222009F44ECEB60180E290E031D06C
:101AD0002A94F7CFF6018681978102C08FEF9FEF9E
:101AE0002B96E2E1DCC0FC010590615070400110D2
:101AF000D8F7809590958E0F9F1F0895FC01615037
:101B0000704001900110D8F7809590958E0F9F1F1F
:101B10000895DC01FC01672F71917723E1F732977B
:101B200004C07C916D9370836291AE17BF07C8F3B8
:101B300008950F931F93CF93DF93FB01238121FD22
:101B400003C08FEF9FEF2CC022FF16C04681578144
:101B5000248135814217530744F4A081B1819D014E
:101B60002F5F3F4F318320838C93268137812F5FF6
:101B70003F4F3783268314C08B01EC01FB010084A7
:101B8000F185E02D0995892BE1F6D80116968D9106
:101B90009C911797019617969C938E931697CE015A
:101BA000DF91CF911F910F910895FA01AA27283054
:101BB00051F1203181F1E8946F936E7F6E5F7F4F1A
:101BC0008F4F9F4FAF4FB1E03ED0B4E03CD0670F96
:101BD000781F891F9A1FA11D680F791F8A1F911DE9
:101BE000A11D6A0F711D811D911DA11D20D009F439
:101BF00068943F912AE0269F11243019305D31937B
:101C0000DEF6CF010895462F4770405D4193B3E063
:101C10000FD0C9F7F6CF462F4F70405D4A3318F00A
:101C2000495D31FD4052419302D0A9F7EACFB4E0BB
:101C3000A6959795879577956795BA95C9F7009773
:101C40006105710508959B01AC010A2E0694579514
:101C5000479537952795BA95C9F7620F731F841F6B
:101C6000951FA01D08952F923F924F925F926F9201
:101C70007F928F929F92AF92BF92CF92DF92EF921C
:101C8000FF920F931F93CF93DF93CDB7DEB7CA1B9D
:101C9000DB0B0FB6F894DEBF0FBECDBF09942A88C8
:101CA000398848885F846E847D848C849B84AA8470
:101CB000B984C884DF80EE80FD800C811B81AA81FD
:101CC000B981CE0FD11D0FB6F894DEBF0FBECDBFC8
:081CD000ED010895F894FFCF27
:101CD80000000003000000003002410200000A4931
:101CE800324320496E697469616C697A6564000AD7
:101CF800555341525420494E495449414C495A453B
:101D080044000A416464726573732072656769737D
:101D1800746572696E67206661696C6564000A4162
:101D28004331203D2025640A000A414332203D20EA
:101D380025640A000A414333203D2025640A000A2D
:101D4800414334203D2025750A000A414335203D92
:101D58002025750A000A414336203D2025750A00D2
:101D68000A4231203D2025640A000A4232203D20E3
:101D780025640A000A4D42203D2025640A000A4DC8
:101D880043203D2025640A000A4D44203D20256457
:101D98000A000A5554203D202575000A7831203D57
:101DA80020256C642C2078323D20256C642C204240
:101DB80035203D20256C64000A5261772054656DFA
:101DC80070203D20256C64000A52617720507265AE
:101DD8007373757265203D20256C75000A50726515
:101DE8007373616F203D20256C64000A416C74692F
:101DF80064756465203D2025642E25646D0A000AFB
:101E080054656D70726174757261207265616C20C1
:101E18003D2025642E25646F430A0054656D706566
:0E1E28007261747572613A002E006F43000003
:040000030000028A6D
:00000001FF
