:100000000C9434000C9451000C9451000C94510049
:100010000C9451000C9451000C9451000C9451001C
:100020000C9451000C9451000C9451000C9451000C
:100030000C9451000C9451000C9451000C945100FC
:100040000C9451000C9451000C9451000C945100EC
:100050000C9451000C9451000C9451000C945100DC
:100060000C9451000C94510011241FBECFEFD8E026
:10007000DEBFCDBF11E0A0E0B1E0ECE9F1E002C0ED
:1000800005900D92A233B107D9F721E0A2E3B1E0C8
:1000900001C01D92A833B207E1F70E948F000C94B3
:1000A000CC000C940000CF93C82F8A3019F48DE057
:1000B0000E945300E0ECF0E0808185FFFDCFC0930B
:1000C000C60080E090E0CF910895CF93BC01E0ECB2
:1000D000F0E090819923ECF7C091C6008C2F0E942C
:1000E00053008C2F90E0CF9108951092B90088E4CE
:1000F0008093B8008EE091E00E949C0008951092D9
:10010000C50083E38093C40088E18093C10086E04A
:100110008093C2008FE191E00E949C000895E2E389
:10012000F1E080E091E091838083938382830E9459
:100130007F000E947500FFCF0F931F93CF93DF9333
:10014000E0913401F0913501238121FF1BC08C0126
:10015000D0E0C0E0F80181918F016091340170918D
:100160003501DB011896ED91FC911997882331F048
:100170000995892B79F3DFEFCFEFECCF8AE0099572
:10018000892B19F08FEF9FEF02C08D2F9C2FDF91ED
:0C019000CF911F910F910895F894FFCFBC
:10019C0000000003000000005300650000000A4945
:1001AC00324320496E697469616C697A6564000A2E
:1001BC00557341525420494E495449414C495A4572
:0201CC004400ED
:00000001FF
