:100000000C9434000C9451000C9451000C94510049
:100010000C9451000C9451000C9451000C9451001C
:100020000C9451000C9451000C9451000C9451000C
:100030000C9451000C9451000C9451000C945100FC
:100040000C9451000C9451000C9451000C945100EC
:100050000C9451000C9451000C9451000C945100DC
:100060000C9451000C94510011241FBECFEFD8E026
:10007000DEBFCDBF11E0A0E0B1E0E6EAF2E102C0F0
:1000800005900D92AC3FB107D9F722E0ACEFB1E09B
:1000900001C01D92A931B207E1F70E949E030C94A2
:1000A00051090C940000CF93C82F8A3019F48DE0C9
:1000B0000E945300E0ECF0E0808185FFFDCFC0930B
:1000C000C60080E090E0CF910895CF93BC01E0ECB2
:1000D000F0E090819923ECF7C091C6008C2F0E942C
:1000E00053008C2F90E0CF9108951092B90088E4CE
:1000F0008093B8008EE091E00E945906089594EA3A
:100100009093BC00ECEBF0E090819923ECF7909198
:10011000B900987F983011F09031A1F48093BB0022
:1001200084E88093BC00ECEBF0E080818823ECF75E
:100130009091B900987F983139F081E0903429F49A
:1001400080E0089581E0089580E0089584E9809337
:10015000BC00ECEBF0E0808184FDFDCF089580933E
:10016000BB0084E88093BC00ECEBF0E08081882346
:10017000ECF79091B900987F81E0983209F480E023
:10018000089584EC8093BC00ECEBF0E08081882340
:10019000ECF78091BB00089584E88093BC00ECEB01
:1001A000F0E080818823ECF78091BB0008951092E5
:1001B000C50087E68093C40088E18093C10086E093
:1001C0008093C2008FE191E00E9459060895CF9379
:1001D00080930E020E9475008EEE0E947F00C82F51
:1001E000882331F082E391E00E945906C1E0DBC12F
:1001F0008AEA0E94AF000E94A6008FEE0E947F0054
:100200000E94C10010920002809301020E94CC0063
:100210002091000230910102282B3093010220939B
:1002200000020E94A6008EEE0E947F008CEA0E94CF
:10023000AF000E94A6008FEE0E947F000E94C100C6
:1002400010920802809309020E94CC0020910802BB
:1002500030910902282B30930902209308020E9452
:10026000A6008EEE0E947F008EEA0E94AF000E94E0
:10027000A6008FEE0E947F000E94C1001092110222
:10028000809312020E94CC00209111023091120240
:10029000282B30931202209311020E94A6008EEEAA
:1002A0000E947F0080EB0E94AF000E94A6008FEEAC
:1002B0000E947F000E94C10010920C0280930D02E8
:1002C0000E94CC0020910C0230910D02282B30931B
:1002D0000D0220930C020E94A6008EEE0E947F0069
:1002E00082EB0E94AF000E94A6008FEE0E947F006A
:1002F0000E94C10010920602809307020E94CC0067
:100300002091060230910702282B30930702209398
:1003100006020E94A6008EEE0E947F0084EB0E94DF
:10032000AF000E94A6008FEE0E947F000E94C100D5
:1003300010920402809305020E94CC0020910402D6
:1003400030910502282B30930502209304020E946D
:10035000A6008EEE0E947F0086EB0E94AF000E94F6
:10036000A6008FEE0E947F000E94C1001092020240
:10037000809303020E94CC0020910202309103027C
:10038000282B30930302209302020E94A6008EEED7
:100390000E947F0088EB0E94AF000E94A6008FEEB3
:1003A0000E947F000E94C1001092FC018093FD0119
:1003B0000E94CC002091FC013091FD01282B30934C
:1003C000FD012093FC010E94A6008EEE0E947F009A
:1003D0008AEB0E94AF000E94A6008FEE0E947F0071
:1003E0000E94C1001092FE018093FF010E94CC0088
:1003F0002091FE013091FF01282B3093FF012093C3
:10040000FE010E94A6008EEE0E947F008CEB0E94EF
:10041000AF000E94A6008FEE0E947F000E94C100E4
:1004200010920F02809310020E94CC0020910F02C4
:1004300030911002282B3093100220930F020E945B
:10044000A6008EEE0E947F008EEB0E94AF000E94FD
:10045000A6008FEE0E947F000E94C10010920A0247
:1004600080930B020E94CC0020910A0230910B0273
:10047000282B30930B0220930A020E94A600809141
:1004800001028F93809100028F938EE491E09F93FD
:100490008F930E944306809109028F9380910802F6
:1004A0008F9389E591E09F938F930E9443068091FB
:1004B00012028F93809111028F9384E691E09F93B3
:1004C0008F930E94430680910D028F9380910C02BE
:1004D0008F938FE691E09F938F930E9443068091C4
:1004E00007028F93809106028F938AE791E09F9392
:1004F0008F930E944306809105028F93809104029E
:100500008F9385E891E09F938F930E94430680919B
:1005100003028F93809102028F9380E991E09F9371
:100520008F930E9443068091FD018F938091FC017F
:100530008F938AE991E09F938F930E9443068DB732
:100540009EB780960FB6F8949EBF0FBE8DBF809168
:10055000FF018F938091FE018F9384EA91E09F9336
:100560008F930E944306809110028F9380910F0217
:100570008F938EEA91E09F938F930E944306809120
:100580000B028F9380910A028F9388EB91E09F93E7
:100590008F930E9443068DB79EB70C960FB6F894C2
:1005A0009EBF0FBE8DBF8C2FCF9108958F929F92CB
:1005B000AF92BF92CF92DF92EF92FF920F931F9371
:1005C0008EEE0E947F0084EF0E94AF008EE20E94B8
:1005D000AF000E94A6008FE496E40197F1F700C0F7
:1005E00000008EEE0E947F0086EF0E94AF000E9406
:1005F000A6008FEE0E947F000E94C100C82ED12C61
:10060000E12CF12CFE2CED2CDC2CCC240E94CC0017
:10061000C82AFF92EF92DF92CF9282EC91E09F93F3
:100620008F930E9443068091040290910502A701D6
:100630009601281B390B41095109A0910602B0917E
:1006400007020E9407064B015C01072E7FE0B5946C
:10065000A794979487947A95D1F7702D60910F02A3
:1006600070911002CB01770FAA0BBB0BBC01CD011F
:10067000052E5BE0660F771F881F991F5A95D1F7EB
:10068000502D20910A0230910B028901330F220B69
:10069000330BA9019801280D391D4A1D5B1D0E94CD
:1006A000E80575016401C20ED31EE41EF51EFF921B
:1006B000EF92DF92CF925F934F933F932F93BF922E
:1006C000AF929F928F928CEC91E09F938F930E94B8
:1006D000430698E0C90ED11CE11CF11C689413F884
:1006E000F594E794D794C7941694D1F7FF92EF92BC
:1006F000DF92CF9289EE91E09F938F930E94430601
:10070000C701B6010E94EF0420E030E040E251E46E
:100710000E9445042DB73EB7265E3F4F0FB6F894B2
:100720003EBF0FBE2DBF1F910F91FF90EF90DF9046
:10073000CF90BF90AF909F908F900895E3E1F2E04B
:1007400080E091E091838083938382830E94D7002D
:1007500083E00E94E700C5EFD1E00E94D6024B0182
:100760005C010E94B7046B017C01072E000C880B12
:10077000990B0E94EF049B01AC01C501B4010E94DA
:10078000D80320E030E040E251E40E947B050E9463
:10079000B7047F936F93DF92CF92DF93CF930E9442
:1007A00043060F900F900F900F900F900F90D5CFA2
:1007B0005058BB27AA270E94F0030C9441050E94C1
:1007C000330538F00E943A0520F039F49F3F19F4C0
:1007D00026F40C9430050EF4E095E7FB0C942A0502
:1007E000E92F0E94520558F3BA176207730784076E
:1007F000950720F079F4A6F50C9474050EF4E095B5
:100800000B2EBA2FA02D0B01B90190010C01CA01CA
:10081000A0011124FF27591B99F0593F50F4503E75
:1008200068F11A16F040A22F232F342F4427585F67
:10083000F3CF469537952795A795F0405395C9F77F
:100840007EF41F16BA0B620B730B840BBAF0915037
:10085000A1F0FF0FBB1F661F771F881FC2F70EC0D6
:10086000BA0F621F731F841F48F4879577956795A9
:10087000B795F7959E3F08F0B0CF9395880F08F095
:100880009927EE0F9795879508950E9459040C9427
:1008900041050E943A0558F00E94330540F029F4C2
:1008A0005F3F29F00C942A0551110C9475050C94A6
:1008B00030050E94520568F39923B1F3552391F353
:1008C000951B550BBB27AA2762177307840738F0BF
:1008D0009F5F5F4F220F331F441FAA1FA9F335D01C
:1008E0000E2E3AF0E0E832D091505040E695001CD0
:1008F000CAF72BD0FE2F29D0660F771F881FBB1F8A
:10090000261737074807AB07B0E809F0BB0B802D67
:10091000BF01FF2793585F4F3AF09E3F510578F093
:100920000C942A050C9475055F3FE4F3983ED4F3CC
:10093000869577956795B795F7959F5FC9F7880F67
:10094000911D9695879597F90895E1E0660F771FB9
:10095000881FBB1F621773078407BA0720F0621B4A
:10096000730B840BBA0BEE1F88F7E09508950E9475
:10097000BE046894B1110C94750508950E945A053F
:1009800088F09F5798F0B92F9927B751B0F0E1F050
:10099000660F771F881F991F1AF0BA95C9F714C000
:1009A000B13091F00E947405B1E008950C94740583
:1009B000672F782F8827B85F39F0B93FCCF3869539
:1009C00077956795B395D9F73EF490958095709596
:1009D00061957F4F8F4F9F4F0895E89409C097FB13
:1009E0003EF490958095709561957F4F8F4F9F4F06
:1009F0009923A9F0F92F96E9BB279395F69587954A
:100A000077956795B795F111F8CFFAF4BB0F11F40C
:100A100060FF1BC06F5F7F4F8F4F9F4F16C08823B3
:100A200011F096E911C0772321F09EE8872F762FE9
:100A300005C0662371F096E8862F70E060E02AF02A
:100A40009A95660F771F881FDAF7880F9695879516
:100A500097F9089597F99F6780E870E060E008953E
:100A60009FEF80EC089500240A94161617061806C6
:100A70000906089500240A941216130614060506A2
:100A80000895092E0394000C11F4882352F0BB0F33
:100A900040F4BF2B11F460FF04C06F5F7F4F8F4F96
:100AA0009F4F089557FD9058440F551F59F05F3FD1
:100AB00071F04795880F97FB991F61F09F3F79F080
:100AC00087950895121613061406551FF2CF469502
:100AD000F1DF08C0161617061806991FF1CF869584
:100AE0007105610508940895E894BB276627772768
:100AF000CB0197F908950E948E050C9441050E9440
:100B0000330538F00E943A0520F0952311F00C943B
:100B10002A050C94300511240C9475050E94520589
:100B200070F3959FC1F3950F50E0551F629FF00140
:100B3000729FBB27F00DB11D639FAA27F00DB11D59
:100B4000AA1F649F6627B00DA11D661F829F2227E2
:100B5000B00DA11D621F739FB00DA11D621F839F69
:100B6000A00D611D221F749F3327A00D611D231F3F
:100B7000849F600D211D822F762F6A2F11249F578D
:100B800050409AF0F1F088234AF0EE0FFF1FBB1F90
:100B9000661F771F881F91505040A9F79E3F51054F
:100BA00080F00C942A050C9475055F3FE4F3983EA1
:100BB000D4F3869577956795B795F795E7959F5FF9
:100BC000C1F7FE2B880F911D9695879597F908958B
:100BD000052E97FB1EF400940E94FF0557FD07D0D9
:100BE0000E94120607FC03D04EF40C94FF055095AA
:100BF0004095309521953F4F4F4F5F4F0895909509
:100C00008095709561957F4F8F4F9F4F08950E94FB
:100C10003406A59F900DB49F900DA49F800D911D4B
:100C200011240895A1E21A2EAA1BBB1BFD010DC0C1
:100C3000AA1FBB1FEE1FFF1FA217B307E407F5078C
:100C400020F0A21BB30BE40BF50B661F771F881F68
:100C5000991F1A9469F760957095809590959B01FE
:100C6000AC01BD01CF010895A29FB001B39FC001A7
:100C7000A39F700D811D1124911DB29F700D811DC8
:100C80001124911D0895A0E0B0E0E9E4F6E00C9491
:100C90002A09AE014B5F5F4FFA0161917191AF017B
:100CA00080911502909116020E948906E2E00C9450
:100CB00046090F931F93CF93DF93E0911502F091B4
:100CC0001602238121FF1BC08C01D0E0C0E0F80197
:100CD00081918F016091150270911602DB011896C7
:100CE000ED91FC911997882331F00995892B79F3BF
:100CF000DFEFCFEFECCF8AE00995892B19F08FEF6A
:100D00009FEF02C08D2F9C2FDF91CF911F910F91EC
:100D10000895ABE0B0E0EFE8F6E00C941A096C013E
:100D20007B018A01FC0117821682838181FFCCC17D
:100D3000CE0101963C01F6019381F70193FD859167
:100D400093FF81917F01882309F4BAC1853239F478
:100D500093FD859193FF81917F01853229F4B6013E
:100D600090E00E948008E7CF912C212C312CFFE1EC
:100D7000F315D8F08B3279F038F4803279F0833281
:100D8000A1F4232D20611DC08D3261F0803369F400
:100D9000232D216016C0832D8260382EE32DE46060
:100DA0003E2E2AC0F32DF8601DC037FC2DC020ED6B
:100DB000280F2A3040F08E32B9F436FC81C1232D41
:100DC0002064322E19C036FE06C08AE0989E200D9F
:100DD0001124922E11C0EAE02E9E200D1124222E05
:100DE000F32DF0623F2E08C08C3621F4832D8068ED
:100DF000382E02C0883641F4F70193FD859193FFA8
:100E000081917F018111B3CF982F9F7D95549330AD
:100E100028F40C5F1F4F9FE399830DC0833631F098
:100E2000833771F0833509F059C021C0F801808102
:100E300089830E5F1F4F88248394912C530113C024
:100E40002801F2E04F0E511CF801A080B18036FE5F
:100E500003C0692D70E002C06FEF7FEFC5010E94F3
:100E600075084C018201F32DFF773F2E16C0280133
:100E700022E0420E511CF801A080B18036FE03C072
:100E8000692D70E002C06FEF7FEFC5010E946A0814
:100E90004C01F32DF0683F2E820133FC1BC0822DE4
:100EA00090E088169906B0F4B60180E290E00E94C6
:100EB00080082A94F4CFF50137FC859137FE8191A3
:100EC0005F01B60190E00E94800821102A9421E081
:100ED000821A91088114910471F7E8C0843611F0E8
:100EE000893641F5F80137FE07C060817181828142
:100EF00093810C5F1F4F08C060817181072E000C29
:100F0000880B990B0E5F1F4FF32DFF763F2E97FF37
:100F100009C090958095709561957F4F8F4F9F4F39
:100F2000F0683F2E2AE030E0A3010E94BC08882E22
:100F3000861845C0853731F4232D2F7EB22E2AE046
:100F400030E025C0932D997FB92E8F36C1F018F46B
:100F5000883579F0B5C0803719F0883721F0B0C0F6
:100F6000E92FE061BE2EB4FE0DC0FB2DF460BF2E54
:100F700009C034FE0AC0292F2660B22E06C028E020
:100F800030E005C020E130E002C020E132E0F801AD
:100F9000B7FE07C060817181828193810C5F1F4F12
:100FA00006C06081718180E090E00E5F1F4FA30159
:100FB0000E94BC08882E8618FB2DFF773F2E36FE38
:100FC0000DC0232D2E7FA22E891458F434FE0BC0A1
:100FD00032FC09C0832D8E7EA82E05C0B82CA32C10
:100FE00003C0B82C01C0B92CA4FE0FC0FE01E80D4F
:100FF000F11D8081803321F49A2D997EA92E09C09C
:10100000A2FE06C0B394B39404C08A2D867809F07A
:10101000B394A3FC11C0A0FE06C0B21488F4280C3F
:10102000922C9B180EC0B21460F4B60180E290E0DE
:101030000E948008B394F7CFB21418F42B1802C0A2
:10104000982C212CA4FE10C0B60180E390E00E94F1
:101050008008A2FE17C0A1FC03C088E790E002C090
:1010600088E590E0B6010CC08A2D867859F0A1FE83
:1010700002C08BE201C080E2A7FC8DE2B60190E0E5
:101080000E948008891438F4B60180E390E00E9441
:1010900080089A94F7CF8A94F301E80DF11D8081BE
:1010A000B60190E00E9480088110F5CF222009F45B
:1010B00042CEB60180E290E00E9480082A94F6CFEA
:1010C000F6018681978102C08FEF9FEF2B96E2E1B8
:1010D0000C943609FC010590615070400110D8F75E
:1010E000809590958E0F9F1F0895FC016150704070
:1010F00001900110D8F7809590958E0F9F1F08954D
:101100000F931F93CF93DF93FB01238121FD03C036
:101110008FEF9FEF2CC022FF16C04681578124819C
:1011200035814217530744F4A081B1819D012F5F9F
:101130003F4F318320838C93268137812F5F3F4F30
:101140003783268314C08B01EC01FB010084F185F9
:10115000E02D0995892BE1F6D80116968D919C9189
:101160001797019617969C938E931697CE01DF9151
:10117000CF911F910F910895FA01AA27283051F1BC
:10118000203181F1E8946F936E7F6E5F7F4F8F4FB8
:101190009F4FAF4FB1E03ED0B4E03CD0670F781F17
:1011A000891F9A1FA11D680F791F8A1F911DA11DFC
:1011B0006A0F711D811D911DA11D20D009F4689435
:1011C0003F912AE0269F11243019305D3193DEF6DD
:1011D000CF010895462F4770405D4193B3E00FD093
:1011E000C9F7F6CF462F4F70405D4A3318F0495D7E
:1011F00031FD4052419302D0A9F7EACFB4E0A69561
:101200009795879577956795BA95C9F70097610582
:10121000710508959B01AC010A2E069457954795D8
:1012200037952795BA95C9F7620F731F841F951FCD
:10123000A01D08952F923F924F925F926F927F92DE
:101240008F929F92AF92BF92CF92DF92EF92FF92D6
:101250000F931F93CF93DF93CDB7DEB7CA1BDB0B82
:101260000FB6F894DEBF0FBECDBF09942A88398827
:1012700048885F846E847D848C849B84AA84B9842E
:10128000C884DF80EE80FD800C811B81AA81B9813A
:10129000CE0FD11D0FB6F894DEBF0FBECDBFED014E
:0612A0000895F894FFCF51
:1012A60000000003000000005300650000000A492A
:1012B600324320496E697469616C697A6564000A13
:1012C600555341525420494E495449414C495A4577
:1012D60044000A41646472657373207265676973BA
:1012E600746572696E67206661696C6564000A419F
:1012F6004331203D2025640A000A414332203D2027
:1013060025640A000A414333203D2025640A000A69
:10131600414334203D2025750A000A414335203DCE
:101326002025750A000A414336203D2025750A000E
:101336000A4231203D2025640A000A4232203D201F
:1013460025640A000A4D42203D2025640A000A4D04
:1013560043203D2025640A000A4D44203D20256493
:101366000A000A5554203D20256C64000A78312075
:101376003D20256C642C2078323D20256C642C2081
:101386004235203D20256C64000A54656D70203D71
:0C13960020256C64000A25642E256400EC
:00000001FF
